:100F0D0025302E30660074362E7478743D2225738C
:100F1D002200256325632563000000051E000A05D8
:100F2D002300140528001E052C002805320032056B
:100F3D0037003C053C0046054100500546005A056A
:100F4D004B00640550006E05560078055B00820568
:100F5D0060008C05650096056A00A0056F00AA0566
:0D0F6D007400B4057900BE057F00C805843E
:0E001300C10AC18902572000045900000000F4
:100D3A0078007C007D017BFF7A0F79267E007F5444
:100D4A0012061675FFDE75FFAD12102F120068121B
:100D5A00000312105475E70275A890300AFD2009A5
:100D6A0003020E1B855F24856025C209900002E0FC
:100D7A00FEA3E0FFC39525EE95245039C3E5259FD0
:100D8A00F530E5249EF52FE4F52EAF2EEF3395E0EE
:100D9A00FEEF7802C333CE33CED8F92402F582743B
:100DAA00003EF583E52F8530F0120694052EE52ED8
:100DBA00B415D7805C900002E0FEA3E0FFD395252E
:100DCA00EE9524404CEF9525F530EE9524F52FE469
:100DDA00F52EAF2EEF3395E0FEEF7802C333CE3314
:100DEA00CED8F92402F58274003EF583C083C0820E
:100DFA00C3A3E09530FF0582D5820215831582E0F0
:100E0A00952FD082D083F0A3EFF0052EE52EB415EE
:100E1A00C1855F318560327B017A007900AD32ACE1
:100E2A0031120BA88F368E358D348C33753AFF7597
:100E3A003B0F753C0D8F408E3F8D3E8C3D7B007A7B
:100E4A0000792612079553A8EFD299753A00753B97
:100E5A0000753C267BFF7A0F791312079B7BFF7A7A
:100E6A000F791F753AFF753BFF753CFF12079BC24E
:070E7A009943A810020D6569
:10102F00E4F58475C80475C90875CAEC75CBFF75EE
:10103F00840175C80475C90875CCFE75CDFF75CAD6
:05104F00FE75CBFF223D
:0A105400E4F58475985075910522AB
:1000030075840F75A4F175A50175E10475E34022AC
:0D006800E4F58475E88475BC2875D102228A
:03002300020FE0E9
:070FE000C0E0C0D075D0088D
:100FE700758400309816AF99BF5502D20AEF339532
:0C0FF700E0FEEF64AA4E7002C20AC2982D
:05100300D0D0D0E03266
:03007B00020F7AF7
:070F7A00C0E0C0D075D010EB
:100F810075840053E7FDC2EDAFBEAEBFE4FCFDE5E5
:100F91005C2FF55CE55B3EF55BED355AF55AEC35BA
:100FA10059F559E558155870021557E558455770C8
:100FB10026755720F558AF5CAE5BAD5AAC59780D2C
:100FC1001206F08F608E5F8D5E8C5D755C00755BC7
:0A0FD10000755A0075590043E7024D
:050FDB00D0D0D0E0328F
:0A0BA8008B378A3889398C3A8D3B6F
:100BB200E4F53CAF3CEF3395E0FEEF7802C333CE71
:100BC20033CED8F9AB37AA38A939F5828E8312060B
:100BD200AAFDACF0E41203218F4C8E4B8D4A8C4956
:100BE200AF3CEF3395E0FEEF7802C333CE33CED87D
:100BF200F9AB372539F9E5383EFA9000021206AA18
:100C0200FDACF0E41203218F488E478D468C45AC33
:100C12003AAD3BE41203218F448E438D428C41AFA7
:100C22003CEF3395E0FEEF7802C333CE33CED8F9F2
:100C3200AB372539F9E5383EFA9000021206AAB51B
:100C42003B22E5F0B53A1DAF3CEF3395E0FEEF787D
:100C520002C333CE33CED8F9AB37AA38A939F582DD
:100C62008E83802BAF3CEF3395E0FEEF7802C333E7
:100C7200CE33CED8F9AB372539F9E5383EFA9000B4
:100C8200061206AAB53B12E5F0B53A0D9000041221
:100C920006AAFDACF0E4020321AF3CEF3395E0FE7F
:100CA200EF7802C333CE33CED8F9AB372539F9E525
:100CB200383EFA9000021206AAC3953BE5F0953A37
:100CC200505F9000061206AAD3953BE5F0953A4094
:100CD200509000021206AAFFAEF09000061206AA79
:100CE200FDACF0120026C004C005C006C007AB4828
:100CF200AA47A946A845AF44AE43AD42AC41120053
:100D020081D003D002D001D000120176AB4CAA4BA5
:100D1200A94AA8491200858F408E3F8D3E8C3D80A6
:100D22000E053CC3E53C648094955003020BB5AFBD
:070D320040AE3FAD3EAC3DB9
:010D39002297
:040026008C4D8D4E22
:10002A00AD07AC06E41203218F528E518D508C4FCE
:10003A00AC4DAD4EE41203218F568E558D548C5320
:10004A00AB52AA51A950A84F120081A804A905AA27
:0D005A0006AB07E4FFFE7D207C4112027F13
:010067002276
:10007E0002038FE86480F8E933E83360110460F01E
:10008E00ED33EC337009E8FCE9FDEAFEEBFF2204E8
:10009E0060DED3EB9FEA9EE99DE8C2E78CF0C2F7E3
:1000AE0095F0400CE8CCF8E9CDF9EACEFAEBCFFBAF
:1000BE0012035A85D0F05804700320D5B3E80470AB
:1000CE00075002B2D502039992D5EC0460F7E4CC46
:1000DE00C0E0C398F8603B94186008400DD0E0FB78
:1000EE00020371E4FBFAC9FC8028E830E406E4C997
:1000FE00FBE4CAFCE830E305E4C9CACBFCE85407CC
:10010E006010F8C3E913F9EA13FAEB13FBEC13FCD6
:10011E00D8F130F52FC3E49CFCEF9BFFEE9AFEED79
:10012E0099FDD0E0FBEF4E4D4C701222DB03020323
:10013E0096EC2CFCEF33FFEE33FEED33FDED30E7A6
:10014E00EB020371EF2BFFEE3AFEED39FDD0E0FB33
:10015E0050130BBB0003020399ED13FDEE13FEEFDC
:08016E0013FFEC13FC02037106
:10017600EC4D6011E8497017ED33EC3304600DE483
:10018600FCFFFEFD22E933E8330470F802038F1208
:10019600035A58046009E4CC248150062850090209
:1001A6000399284003020396C0E0EB4A7044B980E5
:1001B60006D0E0FB020385EF4E701CBD8008EBFF06
:1001C600EAFEE9FD80EBE98DF0A4FEE5F002025FB0
:1001D600E9CDF9EAFEEBFFEF89F0A4FCE5F0CE8964
:1001E600F0A42EFFE435F0CD89F0A42DFEE435F021
:1001F6008067EF4E7005BD80D780C3EF8BF0A4AC4F
:10020600F0EE8BF0A42CFCE435F0F8EF8AF0A42C89
:10021600E5F038FCE433CB8DF0A42CFCE5F03BF89C
:10022600EE8AF0A42CFCE5F038F8E433CF89F0A48C
:100236002CFCE5F038CF3400CE89F0A42FFFE5F092
:100246003EFEE433C98DF0A42EFEE5F039CD8AF0EA
:10025600A42FFFE5F03EFEE43DFD33D0E0FB500762
:100266000BBB000F020399EC2CFCEF33FFEE33FEC1
:06027600ED33FD020371EF
:10027C00020399EC5D046005E85904700302038FD6
:10028C0012035A580460F6EC4860F2EC7004FDFE60
:10029C00FF22C860DB2481C85009C3986002500655
:1002AC000203969850CAF582E9294B4A7005AB8235
:1002BC0002038575F0007C1A7880C3EF9BEE9AEDF3
:1002CC0099400DC3EF9BFFEE9AFEED99FDE842F0CD
:1002DC00DC23ACF0D0E0FFD0E0FED0E0FDAB822020
:1002EC00E7101BEB60BAEC2CFCEF33FFEE33FEEDAA
:1002FC0033FD020371E803F830E705C0F075F00038
:10030C00EF2FFFEE33FEED33FD40B830E7C280AA8D
:10031C0075F020800E75F010800575F0087D007E5C
:10032C00007F003392D530D5031206E2EC33401037
:10033C00EF33FFEE33FEED33FDEC33FCD5F0ED2265
:0E034C00E5F0247EA2D513CC92E7CDCEFF22A1
:10073900E54E243AF8E6054E227837300702783A32
:10074900E475F00112070302063C2000EB7F2ED26C
:10075900008018EF540F2490D43440D4FF30040B98
:10076900EF24BFB41A0050032461FFE54F6002155E
:100779004F0552E5527002055130070D7837E4757F
:10078900F001120703EF0206820210087403D20770
:100799008003E4C207F54E8B378A388939E4F54F6F
:1007A900F551F552E54F60077F2012077480F57502
:1007B90050FFC201C200C202C203C205C206C2087A
:1007C900120742FF700D3007057F00120785AF52EF
:1007D900AE5122B4255FC2D5C204120742FF24D00C
:1007E900B40A00501A75F00A784F30D50508B6FFDB
:1007F9000106C6A426F620D5047002D20380D924A6
:10080900CFB41A00EF5004C2E5D204020A72D20131
:1008190080C6D20080C0D20280BCD2D580BAD205AF
:1008290080B47F201207742002077401B54F00407D
:10083900F1120739FF1207740207ADD208D20680F8
:1008490095120739FB120739FA120739F94A4B7021
:100859000679697A0B7BFF20022EE54F602A7E001C
:100869008E8275830012065560060EEE655070F093
:10087900C2D5EBC0E0EAC0E0E9C0E0EE120AD2D08E
:10088900E0F9D0E0FAD0E0FB12063CFF60AAEBC029
:10089900E0EAC0E0E9C0E0120774D0E02401F9D031
:1008A900E03400FAD0E0FBE5500460DCD550D98093
:1008B90087D20280A2120AB560F7E55070010412CE
:1008C90003A4A950600DE550600914F550120B5CA2
:1008D900EF60F3EA30E702F404C3995077EAF425AC
:1008E900500430E701E404F550800D120AB560C1E7
:1008F900EA055025501203A4EA784DF630E701E4E1
:10090900255004D5500420050114120AD2E4C0E090
:10091900120B5C784DE6601320E70714F612075CAA
:10092900802204F6D0E014C0E07F0012075CE55095
:1009390060071207531550800B300503120753D077
:10094900E00207ADD0E00480C5120AB560A0E55009
:10095900041203A4784DEAF6E5502005026001046B
:050969002404120AD273
:10096E0074FF04C0E0120B5C12075CE55020050218
:10097E006003120753D0E0B550E87F451207667842
:10098E004DE67F2B30E7047F2DF404C0E012077490
:10099E00D0E075F00A84C0F012075DD0E012075D5A
:1009AE000207AD791080027908C206C2088008D20B
:1009BE00D5790A8004790AC2D5E550047002F55043
:1009CE00E4FAFDFEFF120739FC7B08200113120723
:1009DE0039FD7B1030000A120739FE120739FF7BF2
:1009EE0020EC3382D592D55013C3E43000069FFF1E
:1009FE00E49EFEE42001039DFDE49CFCE4CBF8C2E2
:100A0E0001EC700CCFCECDCCE824F8F870F3801743
:100A1E00C3EF33FFEE33FEED33FDEC33FCEB33FB74
:100A2E00994002FB0FD8E9EB300105F8D0E0C4483D
:100A3E00B201C0E00AEC4D4E4F78207B0070C2EA46
:100A4E00B5500040BCC0E0120AD4D0F0D0E0200176
:100A5E0004C4C0E0C4B201C0F012075DD0F0D5F0FE
:100A6E00EB0207AD120713084A5309B158081B4C85
:100A7E0008174209B54F09BD4409BD49083043095D
:100A8E00C35508F44609524508BE470B8950081F46
:100A9E002D08232E08462B0827230844200B722AE4
:100AAE0007DF480000083EE550B4FF0375500612FC
:100ABE000739FC120739FD120739FE120739FF7884
:100ACE00460203D3790AA2D5200314300509B910C2
:100ADE00020404B9080104A2D52006025001042024
:100AEE0002689202B54F005034C0E07F20300319E7
:100AFE007F30A20272067205500F120B2BC202C279
:100B0E0006C205C2087F30800F300503E9C0E0122F
:100B1E000774300503D0E0F9D0E0B54FCC3005179F
:100B2E007F30B9100C1207747F583004077F78801D
:100B3E0003B908031207743002057F2D0207747F74
:100B4E00202008F87F2B2006F322920280CF7F0010
:100B5E00B4070050052446F8E6FF22286E756C6C2B
:100B6E002900D2011207393001F8C201784F30D571
:100B7E000108F60207DF2D504349581207392403A6
:100B8E00B405004001E4900B8493120765743A1289
:0A0B9E000765D203754F040209B188
:10035A00E9D2E7C933E833F892D5EDD2E7CD33ECE9
:07036A0033FC5002B2D52262
:10037100EC30E7100FBF000C0EBE00080DBD0004ED
:100381000BEB6014A2D5EB13FCED92E7FD2274FF99
:10039100FCFDFEFF22E480F8A2D574FF13FC7D80F2
:0303A100E480EF06
:1003A400F920E72824F950037907E4F42402FB1820
:1003B400DBFDE624FB5014E9600DE4F618E604F6D0
:0F03C400B40A08E4F6D9F57401F60A22C2D5226C
:1003D300ED33EC3392D5FA602AB4FF33EDC2E77BF9
:1003E300FF60067A0379F8E4227A04790120D504C0
:1003F3007A0379FC224E614E002B494E46002D496B
:100403004E4600E47A08F608DAFC7B00740722E81B
:10041300C0E0ECC0E0EDC0E0EEC0E0EFC0E0EA75A4
:10042300F010A4CAABF075F04DA42BFBE435F0FC3F
:10043300EA2410FAEB34C5FBEC34D9FCEDC2E7FF38
:1004430075F056A4F42411C5F0F434C58FF0A42A32
:10045300E5F03BE43CF620E714120506D0E0FFD0BC
:10046300E0FED0E0FDD0E0FC12027F8014F4041221
:100473000506D0E0FFD0E0FED0E0FDD0E0FC1201A5
:1004830076D0E0F8E6FAEDD2E7CD33EC332482FB05
:10049300E4C3CF33CFCE33CECD33CD33DBF37B07C2
:1004A30075F00A846004F6081B0AE5F0F6088FF07D
:1004B300740AA4FFACF08EF0740AA42CFEACF050C6
:1004C300010C8DF0740AA42CFDE435F0F608DBDE94
:0304D30074072289
:1004D6003F8000004120000042C80000447A00002E
:1004E600461C400047C35000497424004B189680B0
:1004F6004CBEBC205A0E1BCA6753C21C749DC5AEA7
:10050600FB60065407601C2323120534EB54386045
:100516000912052012052F120176ECF8EDF9EEFA14
:10052600EFCB22EB12052F80F1543803241C9004E4
:10053600D6FE93FC0EEE93FD0EEE930ECE93FF22A7
:03000000020E816C
:0C0E8100787FE4F6D8FD758160020EC891
:10054600E709F608DFFA8046E709F208DFFA803E97
:1005560088828C83E709F0A3DFFA8032E309F60884
:10056600DFFA8078E309F208DFFA807088828C83EC
:10057600E309F0A3DFFA806489828A83E0A3F608A0
:10058600DFFA805889828A83E0A3F208DFFA804C7A
:1005960080D280FA80C680D4806980F28033801051
:1005A60080A680EA809A80A880DA80E280CA8033BA
:1005B60089828A83ECFAE493A3C8C582C8CCC58332
:1005C600CCF0A3C8C582C8CCC583CCDFE9DEE78002
:1005D6000D89828A83E493A3F608DFF9ECFAA9F081
:1005E600EDFB2289828A83ECFAE0A3C8C582C8CCD7
:1005F600C583CCF0A3C8C582C8CCC583CCDFEADEF0
:10060600E880DB89828A83E493A3F208DFF980CC51
:1006160088F0EF60010E4E60C388F0ED2402B4044A
:100626000050B9F582EB2402B4040050AF232345F1
:060636008223900596737B
:10063C00BB010689828A83E0225002E722BBFE02BC
:09064C00E32289828A83E49322EF
:10065500BB010CE58229F582E5833AF583E022505A
:1006650006E92582F8E622BBFE06E92582F8E222A4
:0D067500E58229F582E5833AF583E49322BE
:10068200BB010689828A83F0225002F722BBFE0157
:02069200F32251
:10069400C5F0F8A3E028F0C5F0F8E58215827002F1
:0606A4001583E038F0228E
:1006AA00BB0110E58229F582E5833AF583E0F5F08E
:1006BA00A3E0225009E92582F886F008E622BBFE6B
:1006CA000AE92582F8E2F5F008E222E5832AF583B1
:0806DA00E993F5F0A3E9932276
:0E06E200C3E49FFFE49EFEE49DFDE49CFC2229
:1006F000E8600FECC313FCED13FDEE13FEEF13FFE8
:03070000D8F1220B
:10070300FAE6FB0808E6F925F0F618E6CA3AF622F7
:10071300D083D082F8E4937012740193700DA3A375
:1007230093F8740193F5828883E473740293686089
:06073300EFA3A3A380DF89
:10100800EFB40A07740D121013740A309811A899D6
:10101800B8130CC2983098FDA899C298B811F63048
:0710280099FDC299F5992220
:100E8D00020D3AE493A3F8E493A34003F68001F234
:100E9D0008DFF48029E493A3F85407240CC8C33366
:100EAD00C4540F4420C8834004F456800146F6DF35
:100EBD00E4800B0102040810204080900013E47EB2
:100ECD00019360BCA3FF543F30E509541FFEE4932A
:100EDD00A360010ECF54C025E060A840B8E493A3F1
:100EED00FAE493A3F8E493A3C8C582C8CAC583CA1C
:100EFD00F0A3C8C582C8CAC583CADFE9DEE780BED4
:0100210000DE
:00000001FF
